:020000040000FA
:0400000009EF00F014
:0E000800018296EC03F0019211001DEF04F04E
:1002000000000102030405060708090A0B0C0D0E85
:10021000F0F1E2E3B4B1969778715A533C351E0A77
:100220000D57656C636F6D6520746F204368616D59
:10023000616C656F6E21200A0D00000D2D3E20526D
:1002400041303A202564202D2D2D205241313A2075
:070250002564200A000000F4
:10025800FCD0C30EC216C282010E396E1200C2B2A1
:1002680012007750020D800EF324D96E010EF4208F
:10027800DA6EDECF71F0DDCF72F071C073F072C04C
:1002880074F0000E74BEFF0E756E766E7350265EA7
:100298007450275A7550285A7650295AC350C4CFDB
:1002A80071F0726A71C072F0716A7112000E721286
:1002B8007750020D800EF324D96E010EF420DA6E09
:1002C80071C0DEFF72C0DDFF7750020D800EF3248F
:1002D800D96E010EF420DA6EDECF71F0DDCF72F048
:1002E80071C073F072C074F0000E74BEFF0E756EAC
:1002F800766E735026267450272275502822765021
:100308002922C250C30B0409C26EC282020E396E82
:100318001200CBEC04F0E806D8B4AECF3AF0C2B283
:1003280012007750020D000EF324D96E010EF4204E
:10033800DA6EDECF71F0DDCF72F071C073F072C08B
:1003480074F0000E74BEFF0E756E766E7350225EEA
:100358007450235A7550245A7650255AC350C4CF26
:1003680071F0726A71C072F0716A7112000E7212C5
:100378007750020D000EF324D96E010EF420DA6EC8
:1003880071C0DEFF72C0DDFF7750020D000EF3244E
:10039800D96E010EF420DA6EDECF71F0DDCF72F087
:1003A80071C073F072C074F0000E74BEFF0E756EEB
:1003B800766E73502226745023227550242276506C
:1003C80025227728776E400E7718D8B4776A775049
:1003D800D8A403D0030E396E1200396A120026C061
:1003E80071F027C072F0060E736E72347232713279
:1003F800732EFBD7FF0E71142E6E030E72142F6E20
:1004080022C071F023C072F0060E736E723472321D
:100418007132732EFBD7FF0E7114306E030E7214F7
:10042800316E800E5F6E3B0E606E2EC061F02FC085
:1004380062F030C063F031C064F053EC04F0800E19
:10044800476E486AC5EC03F0C8D73950000AD8B4DB
:1004580000D7010AD8B403D7030AD8B45AD7010A77
:10046800D8A41200BCD75150D96EDA6ADFCFF6FF94
:10047800020EF76E0800F550250AD8A48CD051500A
:10048800D96EDA6ADF2A2B6A000E2A6E2AC038F083
:100498002C682D685150D96EDA6ADF50556E55C0F8
:1004A800F6FF020EF76E0800F550640AD8B409D0BA
:1004B80055C0F6FF020EF76E0800F550690AD8A479
:1004C80065D05250D96EDA6A020EDF26DF5CD96E2B
:1004D800DA6ADECF56F0DECF57F05150D96EDA6ABD
:1004E8005528DF6E200E5A6E57AE02D0010E01D08D
:1004F800000E546E5A065A50020FD96EDA6A56C068
:1005080046F057C047F0496A0A0E486E5FEC03F0A0
:1005180046C04CF047C04DF097EC04F04C50300FFB
:10052800DF6E56C046F057C047F0496A0A0E486E5B
:100538001FEC03F046C056F047C057F0565057100E
:10054800D8B403D05A50D8A4D5D75A50D8B419D053
:100558005450D8B416D05A065A50020FD96EDA6AD7
:100568002D0EDF6E0ED05A50020FD96EDA6ADF50A8
:10057800536E5350466E476A50C048F0DFEC02F0A5
:100588005A2A200E5A18D8B41200EDD75150D96EF5
:10059800DA6ADF2A12005150D96EDA6ADFCFF6FF25
:1005A800020EF76E0800F550466E476A50C048F0D4
:1005B800DFEC02F0EBD74850D8B403D04850D8A4A9
:1005C80004D04650DBEC04F012004850D96EDA6AC9
:1005D800090ED926DE50DE10D8B414D04850D96E92
:1005E800DA6A090ED9264850E16EE26A020EE1265F
:1005F800DE50E65CE650800A4D6EDE50800A4D58AB
:10060800D8B012004850D96EDA6A020ED926DF50E7
:10061800496E4850D96EDA6ADF504924D96EDA6AD1
:1006280046C0DFFF4850D96EDA6A020ED926DE2AA4
:10063800000EDD2212004B6A49AE06D0486C491EF6
:10064800D8B0492A010E4B6E47AE06D0466C471EFD
:10065800D8B0472A010E4B1A4D6A000E4C6E48500E
:100668004910D8B41CD0010E4A6E04D0D890483630
:1006780049364A2A49AEFAD7D8904C364D364850B2
:10068800465C49504758D8A005D04850465E495066
:10069800475A4C80D890493248324A2EEDD74B50B1
:1006A800D8B404D04C6C4D1ED8B04D2A4CC046F07E
:1006B8004DC047F012004B6A47AE06D0466C471E45
:1006C800D8B0472A010E4B6E49AE04D0486C491E7B
:1006D800D8B0492A48504910D8B418D0010E4A6EEB
:1006E80004D0D890483649364A2A49AEFAD74850F5
:1006F800465C49504758D8A004D04850465E4950F7
:10070800475AD890493248324A2EF1D74B50D8B47C
:1007180004D0466C471ED8B0472A46C046F047C0AA
:1007280047F01200F294D76A940ED66E324A332AF2
:100738003D6A3F44E846030B020B3D6E335004E12B
:10074800030E325CD8A009D0010E3B1A32B00ED08D
:10075800170E3E6E170E3E6E09D03DC03BF032B00C
:1007680005D0170E3E6E170E3E6E3E6A32A006D0BA
:100778003B923D503B12344A352A3C2A3BC08CFF01
:10078800120019D0C5EC04F00009D8B4FBD747C053
:10079800F6FF48C0F7FFF86A010EF76403D00800B7
:1007A800F55005D0F6CFE1FFF7CFE2FFE750D5ECE3
:1007B80004F0474A482A47C0F6FF48C0F7FFF86ADE
:1007C800010EF76403D00800F55005D0F6CFE1FF1D
:1007D800F7CFE2FFE7500009D8B41200D3D70D0EC7
:1007E800C16EC26AC050F80B0609C06EC08E380EC2
:1007F800C012C280C1983F0E776E17D07750020D95
:10080800000EF324D96E010EF420DA6EDE6ADD6A7A
:100818007750020D800EF324E16E010EF420E26E93
:10082800DECFE6FFDDCFE5FF77067750D8B41200BC
:10083800E5D701EE00F011EE00F0EE6AE550E15068
:10084800FCE1E250FAE100EE80F0200EEE6AE806E4
:10085800FDE100EE02F0440EEE6AE806FDE10190CB
:100868000192000EF86E00013AEF04F0C168926838
:100878009568700ED3129B8C83EC04F0ABEC04F0FB
:10088800B6EC04F0F3EC03F01F0E476E4750D8A403
:10089800020E486EC5EC03F02CEC01F0FDD7610E9A
:1008A800656E5FC066F0696A000E686E706A000E59
:1008B8006F6E660E5B6E60C05CF0650E5D6E6BEC15
:1008C80004F05F506824D96EDA6ADF6A12005CC0EF
:1008D8005EF008D05BC050F05E0E516E5DC052F005
:1008E80037EC02F05EC0F6FF020EF76E0800F55016
:1008F8000009D8A4EFD75C6A000E5B6E1200D58E93
:10090800D58CD586D59AD76A940ED66EF294F28A8B
:10091800F28CF28E356A000E346E336A000E326E37
:10092800D1EC04F012004DBE05D04CC04CF04DC0C7
:100938004DF012004CC04EF04DC04FF04E1E4F1EF1
:100948004E4A4F2A4EC04CF04FC04DF01200949CB6
:10095800948E330EAF6EB896AC98AC94AC8AAB8ECE
:10096800AB881200D9EC04F0D76A940ED66E3B6AB5
:10097800D58E1200356A000E346E336A000E326E60
:100988001200ACA202D0010E1200000E12009EAAA4
:1009980002D0010E1200000E1200D59EBEEC04F02B
:1009A8001200466E46C0ADFF12003C6A12001200EB
:020000040030CA
:08000000FF081F1EFF8181FFB4
:00000001FF
